:020000040800F2
:100000002008002035020008393E00083F3C000867
:10001000373E00082D1C0008A94000080000000021
:10002000000000000000000000000000FD3E00088D
:100030002F1C0008000000003B3E0008FF3E0008A7
:100040004F0200084F0200084F0200084F0200084C
:100050004F0200084F0200084F0200084F0200083C
:100060004F0200084F0200084F0200084F0200082C
:100070004F0200084F0200084F0200084F0200081C
:100080004F0200084F0200084F0200084F0200080C
:100090004F0200084F0200084F0200084F020008FC
:1000A0004F0200084F0200084F0200084F020008EC
:1000B0004F0200084F0200084F0200084F020008DC
:1000C0004F0200084F0200084F0200084F020008CC
:1000D0004F0200089D4000084F0200084F02000830
:1000E0004F0200084F0200084F02000800F002F81B
:1000F00000F090F80AA090E8000C82448344AAF132
:100100000107DA4501D100F085F8AFF2090EBAE82F
:100110000F0013F0010F18BFFB1A43F0010318473B
:100120003453000054530000103A24BF78C878C1FB
:10013000FAD8520724BF30C830C144BF04680C60ED
:10014000704700000023002400250026103A28BF35
:1001500078C1FBD8520728BF30C148BF0B60704739
:100160006E2900F05981702900F09B82662905F004
:10017000E380652905F0E080672905F0DD806129CD
:1001800005F0DC8003681B0A28BF41F08001692963
:1001900000F00681642900F00381752900F00081D8
:1001A0006F2900F02982782900F06782E92900F0A0
:1001B000C381E42900F0C081F52900F0BD81EF2959
:1001C00000F02682F82900F066820368DB0928BF68
:1001D00041F08001632900F06787732900F06C8784
:1001E000E32900F07787F32900F07C87002070472F
:1001F0001FB500F0C9FF04000020002105F086F8BB
:10020000401C60600020002105F06AF8E0601FBD1E
:1002100010B510BD00F08AFF1146FFF7E9FF04F0AA
:100220007BFB01F063F803B4FFF7F2FF03BC01F0BE
:10023000ABF800000948804709480047FEE7FEE7A1
:10024000FEE7FEE7FEE7FEE7FEE7FEE7FEE7FEE786
:1002500004480549054A064B70470000033F000863
:10026000ED000008200200202008002020040020CB
:10027000200400201CB50C46064B7B4469460090C8
:10028000204600F0E2F804460020694600F0F0F84D
:1002900020461CBDF301000010B5431C02E010F81D
:1002A000011B71B18107FAD14FF0013202C88C1ADB
:1002B0008C4314EAC211F9D0C01A0A0603D0C01E3A
:1002C00010BDC01A10BD0A0401D0801E10BD090265
:1002D000FCD0401E10BD70477047704770B5044693
:1002E00085690068C10601D5302600E02026C007D8
:1002F00007D070BDD4E9012130469047206A401CE8
:1003000020626D1EF6D570BD70B504468569007813
:10031000C00707D170BDD4E9012120209047206A91
:10032000401C20626D1EF6D570BD09684A0501D5D6
:1003300040B27047C905FCD500B2704709684A054C
:1003400001D5C0B27047C905FCD580B2704770B501
:100350000C460546012A05D02878800600D5EA69B2
:10036000002302E0012305E05B1C934202D2E05C23
:100370000028F9D1A869E618C01AA861286A1844AB
:1003800028622846FFF7AAFF04E0D5E9012114F806
:10039000010B9047B442F8D32846FFF7B5FF70BD74
:1003A0002DE9F0410646002410687529314616A54E
:1003B00010D0FFF7BAFF002802DA404213A507E089
:1003C00031688A0701D512A502E0490704D511A5B5
:1003D000012401E0FFF7B2FF00210A2206F1240701
:1003E00009E0B0FBF2FCB0FBF2F302FB1C00303082
:1003F00078541846491C0028F3D123462A46304633
:10040000BDE8F04100F061BA000000002D000000DE
:100410002B0000002000000011680268006A5305EC
:1004200001D508700AE0D30501D5088006E013065F
:1004300003D5C217C1E9000200E00860012070473F
:1004400001694A1C02610878704700B58FB0CDE998
:1004500001310021059105497944CDE90310114688
:10046000684600F029F90FB000BD0000E5FFFFFF6E
:100470000A6802F8010B0A60704700002DE9FF5F6F
:1004800015468A460446DFF8AC80F8440027D8E9D0
:1004900000103E46CDE9001010E03AF816106A460A
:1004A00002A800F023FE411C07D02178890603D55D
:1004B000E269391891420DD80744761C20788006ED
:1004C00002D5E069B84205DDAE42E6DB3AF8160037
:1004D0000028E2D1A069C01BA0612046FFF7FEFE04
:1004E000D8E90010CDE90010002017E03AF8181004
:1004F0006A4602A800F0FAFDB0F1FF3F81460BD03A
:1005000000250DF1080B05E0D4E901211BF80500D9
:1005100090476D1C4D45F7D308F10100B04280466D
:10052000E4DB206A384420622046FFF7EDFEBDE898
:10053000FF9F0000CA4E00002DE9F0418046D21D09
:1005400022F007020025D2E90002F52915A614D0F1
:10055000011E72F1000106DA0023D0EB030063EB09
:10056000020211A608E0D8F800108B0701D50FA6EB
:1005700002E0490701D50EA601251146002408F125
:10058000240704E000F05CF930323A55641C50EA6C
:100590000102F7D12B46324621464046BDE8F041E4
:1005A00000F093B9000000002D0000002B000000B7
:1005B0002000000030B4002100F1240408E002F023
:1005C0000705D208303542EA4372DB086554491CFE
:1005D00052EA0305F3D10468002310A2250708D5C9
:1005E00004F020040C4304D0C46901230CA2641E4F
:1005F000C46130BC00F069B910B5044621461068EA
:10060000FFF79CFE02462046BDE810400023D1E7DC
:10061000D21D22F00701D1E90023CBE70000000042
:1006200030000000F0B40D460188090502D5214CC8
:100630007C4402E01F4C7C440E34002100F124066F
:1006400008E002F00F071209E75D42EA03721B0996
:100650007754491C52EA0307F3D1027800231207AA
:1006600004D5702D06D009B1022311342246F0BC06
:1006700000F02BB901231034F8E770B504460D469D
:1006800021461068FFF75AFE024629462046BDE87B
:1006900070400023C6E7D21D22F00703D3E90023F0
:1006A000C0E70368126843F0200303600823C361B6
:1006B0000023B7E72C4D00002DE9F05F8946044682
:1006C0004FF0000ADFF874B1FB44C0F820A02046C8
:1006D000E1688847002874D0252806D0D4E9012194
:1006E0009047206A401C2062F1E700265F462046C2
:1006F000E16888472028054607DB312D05D27819A7
:1007000010F8200C08B10643F1E7B00701D526F038
:100710000406C4F81CA00027C4F818A02A2D09D08C
:10072000284603F0D6FC38B304EB8708303DC8F800
:10073000185019E059F8041B204604EB8702916118
:10074000E1688847012F054618D1E069002820DAC2
:1007500026F020061DE0D8F8180000EB800005EB1D
:1007600040003038C8F818002046E1688847054640
:1007700003F0AFFC0028EED1012F0AD02E2D08D1B6
:100780002046E16888477F1C0546022F46F0200678
:10079000C4DBA069002803DA404246F00106A061EC
:1007A000F00701D026F010066C2D0BD0682D09D073
:1007B0004C2D39D06A2D35D0742D35D07A2D33D0CB
:1007C00016E038E0E1682F4620468847B8420546E3
:1007D00009D16C2F26D04FF48060E1680643204693
:1007E0008847054604E06C2F1AD04FF4807006430A
:1007F0000DB3A5F14100192802D8203546F4006652
:100800004A462946204626604E46FFF7A9FC80B19D
:1008100001280BD0F61D26F0070000F1080956E765
:100820004020E4E78020D8E70020D6E706F104095D
:100830004DE7284652E7206ABDE8F09FBC4C000017
:1008400030B5B0F10A024FEA900E71F100034EEAA2
:10085000817EB0EB0E0061EB91014FEA101E4EEA73
:10086000017E10EB0E0041EB11114FEA102E4EEA03
:10087000016E10EB0E0041EB11214FEA104E4EEAD3
:10088000014E10EB0E0041EB1141401841F1000107
:100890004FEAD00040EA41704FEAD10110EB8005E9
:1008A0004FEA810444EA907444EB01046D1944EB6F
:1008B0000404521BA3414FF0000348BF0A3200D585
:1008C00030BD401C41F1000130BD2DE9F0470D461F
:1008D00099469246044600F124080168880604D52A
:1008E000E06921F01001216000E00120A84201DD53
:1008F000471B00E00027A1697A1902EB0900081ADA
:10090000A0612078C00602D42046FFF7E7FC00264D
:1009100008E0D4E901211AF806009047206A401C3B
:10092000761C20624E45F4DB2078C0060AD52046AE
:10093000FFF7D4FC06E0D4E9012130209047206A7B
:10094000401C2062381EA7F10107F4DC07E0D4E95F
:10095000012118F805009047206A401C2062281EDB
:10096000A5F10105F3DC2046FFF7CEFC2078000658
:1009700002D50220BDE8F0870120FBE770472DE992
:10098000FF4F0C461E464FF0FF378BB0D2E90001F7
:10099000DDF860800A908A46C1F30A5505B93D46E4
:1009A000002108464FF00000BAF1000F00F44000AB
:1009B00005DA00EB80004FF4400101EA50004FEAF5
:1009C0009059B9F1010F00DDB9460A9850EA4A0082
:1009D0000ED044F61050A5F2FF3545432F14B8F160
:1009E000000F1ED07542291E1EDDC9F100021CE059
:1009F000B8F1010F4FF0000001D0302103E0F243C5
:100A000005E02154401CB042FBDB304600220021AF
:100A100021540B99C1F80880C1E900200FB0BDE84E
:100A2000F08FBD1B6D1CDEE74A4600DA694206A85E
:100A300000F0EEFB06AB93E8070003AB83E807008A
:100A400050460A9900F0A7FC8DE80700A0F5005079
:100A50001F3800900398002D09DD42F21F014A461D
:100A6000084403A90390684600F006FF08E0A0F5DB
:100A700000504A461F3803A90390684600F010FF53
:100A80008DE807000004000C03D04FF0FF30410850
:100A900000E01046B8F1000F03D000220092154686
:100AA0001EE0751E05D4FFF7CBFE303262556D1E79
:100AB000F9D5B3460122084302D000227F1C04E08E
:100AC0002078302801D100227F1E002A099786D085
:100AD0001DE0112D07DAFFF7B3FE303262556D1CB1
:100AE00050EA0102F5D1084302D00098C8B10EE0E7
:100AF0000021681E05E0235C625C63542254401EA2
:100B0000491C8142F7DBAB46A81B401E0990002020
:100B100004F80B000B98099AC0F80880C0E9002B74
:100B20007CE711264FF0000859E72DE9F04F884681
:100B30000446D21D22F0070191B0D1E90001CDE9B0
:100B40000A0103F0B2FA02460B98C00F01D02D2023
:100B500007E02068810701D52B2002E0202101EA6F
:100B6000C000032A099001D0072A05DB034641464D
:100B7000204600F00DFB0BE12078800601D5E069EE
:100B800000E00620B8F1650F814606D0B8F1660F87
:100B900018D0B8F1670F70D131E00020B9F1110F12
:100BA000009001DB112301E009F101030AAA01A968
:100BB0000CA8FFF7E4FEDDE90C70002609F1010541
:100BC000834647E001204B4600904FF000470AAAB9
:100BD00001A90CA8FFF7D3FEDDE90DB00C995D4625
:100BE000002610B909F101000D18B9EB050003D476
:100BF000C0F1FF3609F10105A5EB09002BE0B9F1C1
:100C0000010F01DA4FF001090020B9F1110F009036
:100C1000484601DD112300E003460AAA01A90CA8F9
:100C2000FFF7ADFEDDE90C704D46002683462078C7
:100C300000070AD4AB4500DA5D4601A8012D04DDAA
:100C4000411911F8011C302907D04F4502DA17F17C
:100C5000040F04DA012082460FE06D1EEEE7002F3C
:100C600002DCED1B3E4403E0781CA84200DD7D1C45
:100C7000B81B00F1010A4FF000472078000703D4A9
:100C8000AA4501DB4FF0FF3A0021B7F1004F0DF10B
:100C900043088DF8431024D002202B23002F01DAC3
:100CA0007F422D230A21021EA0F1010000DC5FB16A
:100CB00097FBF1FC97FBF1F201FB1C7C17460CF152
:100CC000300C08F801CDEEE7A8F10100037021888F
:100CD000090501D5452100E06521A0F1010800F8D2
:100CE000011C09980FA9A1EB0807FF1D00B1012005
:100CF000411901EBEA70A1693844081A401EA0614D
:100D00002078C00602D42046FFF7E8FA099828B1F7
:100D1000D4E901219047206A401C20622078C00657
:100D200022D52046FFF7DAFA1EE0002E04DBB34599
:100D300002DD01A8805D00E03020D4E90121904768
:100D4000206A401C2062761CAAF101005FEA000ABA
:100D50000AD100F019FAC0680168405CD4E90121A9
:100D60009047206A401C2062281EA5F10105DCDCAA
:100D700007E0D4E9012118F8010B9047206A401CD4
:100D80002062381EA7F10107F3DC2046FFF7BCFA0A
:100D9000032011B043E600002DE9F04F04460D4654
:100DA000D21D22F0070089B0D0E9009248461746CC
:100DB000394603F07AF90246F80F01D02D2307E0F7
:100DC0002068810701D52B2302E0202101EAC0031E
:100DD0008DF820300BB1012000E00020032A82466C
:100DE00001D0072A04DB2946204600F0D1F93DE175
:100DF0002078800601D40D2500E0E569C7F30A5686
:100E00000D2D49DA00214FEA175B08464FF000002C
:100E1000002F00F4400007DA00EB80004FF440019F
:100E200000EBD07001EA60008115012901DD4FF06F
:100E3000FF3100224FEA850CBCF1180F06D3134690
:100E4000ACF118004FF08052C24003E04FF4801321
:100E500023FA0CF30CF10C0CBCF1200F04D3ACF111
:100E6000200C09FA0CF001E007FA0CF000294FF011
:100E7000004801DD18B90FE00ED140450CD319EB45
:100E800002095F4121B9404502D19F4329EA020985
:100E9000BBEB175F00D0761C2088000502D57B488D
:100EA000784402E079487844193808AA302302F8D7
:100EB0000A30037C0AF10101002E0AF1020A5354A0
:100EC0006A4602DC4FF0300101E04FF031014FF093
:100ED00001088DF8001002D0A6F2FF3603E059EAAF
:100EE000470100D06A4E002D02DC2178090704D5A5
:100EF0004FF002082E218DF80110C44600210BE0AE
:100F0000C7F303433F01C35C491C6D1E02F8083060
:100F1000052908F1010801DA002DF1DC00210CE0BF
:100F200000EB1973491C1B786D1E082902F8083064
:100F30004FEA091908F1010801DA002DF0DC2178E7
:100F4000890602D514E0A8F10108E04505DD02EBB1
:100F5000080111F8011C3029F5D0B8F1000F07DDA8
:100F600002EB080111F8011C2E2901D1A8F101089A
:100F7000002D05DD3E2102F808106D1E08F1010864
:100F8000407C002E02F8080008F1010804DA2D2048
:100F9000764202F8080002E02B2002F808000A213D
:100FA0004FF47A70864208F101080BDB96FBF0F3F0
:100FB000303302F8083096FBF0F308F1010800FB2B
:100FC000136601E0642E0CDB642096FBF0F33033F3
:100FD00002F8083096FBF0F308F1010800FB1366F5
:100FE00001E00A2E06DB96FBF1F0303002F8080033
:100FF00008F1010896FBF1F001FB1060303002F8B7
:101000000800A16908F1010808EB050202EB0A00DB
:10101000081AA0612078C00602D42046FFF75EF9C6
:10102000216A08AE01EB0A00206204E0D4E9012144
:1010300016F8010B9047BAF1010AF7D22078C006E2
:1010400002D52046FFF74AF96E4609E016F8010B73
:101050003E280FD0D4E901219047206A401C20622D
:10106000B8F10108F2D22046FFF74EF909B003208B
:10107000BDE8F08F206A2844206203E0D4E9012112
:10108000302090476D1EEBD3F8E7000008450000C4
:1010900002FCFFFF10B5436913B1AFF3008001E01C
:1010A000FFF755F9012010BD127800F124010A70F4
:1010B00000224A700122EDE711684FF0FF32E9E7A4
:1010C00010B5436913B1AFF3008001E0FFF7D6F923
:1010D000012010BD128800F1240182840022C28404
:1010E0000122EDE711684FF0FF32E9E770B51646CF
:1010F0000C46054600F040F8036893F8010101280A
:1011000006D0FF2C0FD8185D68B101202C7070BD7F
:10111000D3F807013246214603F207130344284659
:10112000BDE8704018474FF0FF3070BD754600F0C5
:10113000E7F8AE4605006946534620F007008546AD
:1011400018B020B5FFF784F8BDE820404FF0000646
:101150004FF000074FF000084FF0000B21F007019F
:10116000AC46ACE8C009ACE8C009ACE8C009ACE8E2
:10117000C0098D467047000010B500F005F8001D4D
:1011800010BD00BF8941000000487047E001002009
:101190002DE9F0411F46044603260168072A01F4A1
:1011A000006004DB08B116A505E016A503E008B150
:1011B00015A500E015A521F010002060A069C01E53
:1011C000A0610FB1401EA0612046FFF787F84FB124
:1011D000D4E9012138469047206A401C2062C01C97
:1011E000206206E0206AFAE7D4E9012115F8010B34
:1011F0009047761EF8D22046FFF786F8BDE8F081CA
:101200004E414E006E616E00494E4600696E6600AA
:101210002DE9F047814616468AB0334878440DC818
:101220008DE80D0030487844801C03AC0DC884E87C
:101230000D0041F69B300844372190FBF1F290FB02
:10124000F1F5A5F1800501FB12041B3C02D56442B7
:10125000012000E00020DFF890A080460027FA443B
:10126000AAF1BE0A0DE0E00709D03246684607EB56
:1012700047010AEB810100F013FB8DE807006410C1
:101280007F1C002CEFD1184F7F44AC3F18E0E807DB
:1012900014D007EB04100DF1180A90E80E008AE84C
:1012A0000E00C068F04201D198190890324606A994
:1012B00003A800F0F5FA03AB83E807006D10641C87
:1012C000002DE4D132466946B8F1000F03A802D0E0
:1012D00000F0D2FA01E000F0E3FAC9E90001C9F830
:1012E00008200AB0BDE8F0871C42000010B5044693
:1012F000AFF300802046BDE81040FEF794BF000029
:1013000000487047C00100204FF0013C50F8042B0A
:1013100051F8043B9A4221D1A2EB0C03934313EA08
:10132000CC1317D150F8042B51F8043B9A4215D135
:10133000A2EB0C03934313EACC130BD150F8042B0C
:1013400051F8043B9A4209D1A2EB0C03934313EAF0
:10135000CC13DBD04FF00000704700BFD01A01BAA9
:10136000B1FA81F101F0180122FA01F0CB40C1F18C
:101370002001DBB2C0B2C01A2CFA01F3D11A91439A
:1013800011EAC311E6D1704701491820ABBEFEE750
:101390002600020070475FEA400C08BF91F0000F82
:1013A0004FEA8C234FEAC12243EA51514FEA1C50C5
:1013B00018BF00F5F0404FEA300018BF41F000417F
:1013C0005FEA6C5C00F02980BCF1FF3F08BF40F091
:1013D00080407047130C06BF12044FF0100C4FF002
:1013E000000C130E04BF12020CF1080C130F04BF03
:1013F00012010CF1040C930F04BF92000CF1020CCB
:10140000D30F04BF52000CF1010C11464FF0000243
:10141000A0F11F00A0EB0C00704711F0004F08BFB7
:10142000704731F000413FF4D5AF0B0C06BF090403
:101430004FF0100C4FF0000C0B0E04BF09020CF122
:10144000080C0B0F04BF09010CF1040C8B0F04BF37
:1014500089000CF1020CCB0F04BF49000CF1010C08
:10146000CCF12003A0EB0C0022FA03F302FA0CF2F9
:1014700041EA030100F10100704720F07F4C80EA4F
:10148000030023F07F47ACEB070303F57C5300F028
:10149000004003F1FF032DE980494FEA154B09B4E1
:1014A0004FEA144325EA0B4E24EA03480FF20426C0
:1014B00006EB132749083E785FEA320203FB066712
:1014C000C7F5000707FB06F64FEA54374FEAD64642
:1014D00006F1020607FB066CCCF1005C4FEA1C47E4
:1014E0002CEA074C07FB06F40CFB06F504EB15464B
:1014F0004FEA961634BF00204FF000404FEAD13734
:1015000006FB07FC4FEA1C4C0CFB0BF7D21B03FB42
:101510000CF761EB07010CFB0EF7B0EB074072EB29
:1015200017420CFB08F734BFA2EB0742B2EB0742AD
:1015300061EB17414FEA0C444FEA910706FB07FCA9
:101540004FEA1C4C0CFB0BF7B0EBC74072EB573269
:1015500003FB0CF734BFA2EBC742B2EBC74261EB0F
:1015600057310CFB0EF7B0EBC70072EB57720CFB58
:1015700008F734BFA2EBC702B2EBC70261EB5771A9
:10158000039F4FEA816141EA921104EBCC044FEAD8
:10159000D1374FEA826206FB07FC42EA90124FEA1B
:1015A00080604FEA1C4C0CFB0BF7D21B03FB0CF7C3
:1015B00061EB07010CFB0EF7B0EB074072EB174233
:1015C0000CFB08F734BFA2EB0742B2EB074261EB1A
:1015D00017414FEA8C554FEA910704EB9C2406FB18
:1015E00007FC4FEA1C4C0CFB0BF7B0EBC74072EB4F
:1015F000573203FB0CF734BFA2EBC742B2EBC74232
:1016000061EB57310CFB0EF7B0EBC70072EB577272
:101610000CFB08F734BFA2EBC702B2EBC70261EBC9
:10162000577115EB4C254FEA816141EA92114FEA5F
:1016300082624FEAD13742EA901206FB07FC44F17E
:1016400000044FEA80604FEA1C4C0CFB0BF7D21BE6
:1016500003FB0CF761EB07010CFB0EF7B0EB074047
:1016600072EB17420CFB08F734BFA2EB0742B2EB58
:10167000074261EB174115EB1C154FEA813141EA36
:1016800092414FEA823242EA90424FEA80304FEA7A
:101690000C7644F1000448EA03434EEA0B484FF04D
:1016A000000EB2EB080C71EB030724BF624639460B
:1016B0004EEB0E0E4FF0000B0018524149414BEB20
:1016C0000B0BB2EB080C71EB03077BF1000B24BF93
:1016D000624639464EEB0E0E4FF0000B0018524199
:1016E00049414BEB0B0BB2EB080C71EB03077BF1A1
:1016F000000B24BF624639464EEB0E0E51EA02073C
:1017000018BF46F0010616EB0E7655F1000254F1B3
:10171000000103D5BDE88901BDE80088BDE8890165
:10172000BDE80048B619524141EB0101A3F10103A4
:10173000704780807F7E7D7C7B7A7978777676753E
:101740007473727171706F6E6E6D6C6C6B6A6A69B6
:101750006868676666656464636362616160605F50
:101760005F5E5E5D5D5C5C5B5B5A5A5959585857C9
:101770005756565555555454535352525251515031
:1017800050504F4F4F4E4E4D4D4D4C4C4C4B4B4B84
:101790004A4A4A49494948484847474747464646CA
:1017A0004545454444444443434343424242424105
:1017B0004141002B26D4770021D01CB54FEA3707D2
:1017C00003B44FF010004FF010014FF000000FBCB9
:1017D000BDE810400BF1010BBBF1010F08BF5FEA40
:1017E000170722BF12F1010211F101014FF0004170
:1017F00043F1000300F0004043EA00007047F9D3D2
:101800005708DAE746EA064613F1400F4FEA164654
:101810001FDD13F1200FDFBF16430A4600212033DE
:101820005B42C8D0C3F1200746EA064602FA07F732
:101830004FEA164646EA0706C3F1200722FA03F2EA
:1018400001FA07F721FA03F14FF0000342EA070219
:10185000B1E746EA020646EA06464FEA164646EA77
:101860000106BCBF46EA0646360C4FF000034FF0B7
:1018700000024FF000019EE72DE9C048934630B4C6
:1018800091E8380007C831EA400C48BF34EA430CFD
:1018900003D5FFF7F2FDFFF78CFFF0BCBDE8008831
:1018A0002DE9C048934630B491E8380007C810F0DD
:1018B000804F08BF13F0804F03D100F005F8FFF709
:1018C00078FFF0BCBDE8008820F07F4780EA030085
:1018D00023F07F4C07EB0C03A3F57C5300F0004092
:1018E000A3F1FE0392F0000F00F0B38095F0000F1B
:1018F00000F077802DE901494FEA11404FEA144684
:1019000021EA004800FB06FC24EA064708FB06F62D
:1019100007FB08F800FB07F718EB06484CEB164CE2
:101920004FEA124B18EB07484FEA15464CEB1740AD
:1019300022EA0B4E0BFB06FC25EA06470EFB06F6D9
:1019400007FB0EFE0BFB07F71EEB064E4CEB164C8F
:101950004FF000061EEB074E4CEB174B18EB0B0835
:1019600040F1000018EB0E0B58EB000840F10000AE
:101970008F1A4FF000013CBFC943661B14BFB5EB83
:10198000040C00213CBFC943F61B4FEA17444EEA42
:101990008E0E27EA04454FEA1C4704FB07622CEA37
:1019A000074C05FB07F70CFB05F604FB0CFC16EBDC
:1019B000074642EB174216EB0C4642EB1C421BEB70
:1019C000060658EB0202414146EA9E0601D5BDE8F3
:1019D0000189B619524141EB0101A3F10103BDE8B0
:1019E00001894FEA14454FEA114724EA054621EAE6
:1019F000074C05FB07F406FB07F70CFB06F105FB9C
:101A00000CFC11EB074144EB17444FEA124711EB72
:101A10000C4144EB1C4422EA074C05FB07F206FB91
:101A200007F70CFB06F605FB0CFC16EB074642EB32
:101A3000174216EB0C4642EB1C456A1854F10001A4
:101A400048BF7047B619524141EB0101A3F10103B0
:101A5000704795F0000F37D04FEA11424FEA144714
:101A600021EA024624EA074C02FB07F106FB07F7CE
:101A70000CFB06F402FB0CFC14EB074441EB174192
:101A80004FEA154714EB0C4441EB1C4125EA074C87
:101A900002FB07F506FB07F70CFB06F602FB0CFC46
:101AA00016EB074645EB174516EB0C4645EB1C427B
:101AB000121951F1000148BF7047B619524141EB6C
:101AC0000101A3F1010370474FEA14454FEA1147A2
:101AD00024EA054621EA074C05FB07F106FB07F758
:101AE0000CFB06F24FF0000605FB0CFC12EB074264
:101AF00041EB174112EB0C4251EB1C4148BF7047C0
:101B0000921841EB0101A3F10103704770B504463F
:101B10000068816811F0010F25D0816821F0010172
:101B2000816000F051FD05462068806810F0010FCB
:101B300019D000BF00F048FD401B02280ED92068D4
:101B4000806810F0010F09D0A06A40F01000A06278
:101B5000E06A40F00100E062012070BD206880680A
:101B600010F0010FE6D1002070BD000070B582B00A
:101B70000026044601960068816811F0010F3CD1EF
:101B8000816841F001018160264827490068B0FB67
:101B9000F1F001900090C0B1B0F1004F3DD20028AB
:101BA000D8BF002005DD10F0010002D00199491EC8
:101BB00001910099401C491C884206DA019A801C58
:101BC000521E521E01928842F8DB00F0FDFC0546D1
:101BD0002068806810F0010F0FD100BF00F0F4FC06
:101BE000401B022804D92068806810F0010F07D03C
:101BF0002068806810F0010FF0D002B0002070BDA6
:101C0000A06A40F01000A062E06A40F00100E062CB
:101C100084F8246002B0012070BD0198401E01903C
:101C2000FCD1D2E72800002040420F00FEE77047B9
:101C3000F0B583B000250446029590F824000128F1
:101C400002BF022003B0F0BD012084F8240020462A
:101C5000FFF75CFF070075D1A06A20F4885040F0C0
:101C60000200A062022001F07DF93B490968B1FB46
:101C7000F0F040000290009018D0B0F1004F66D212
:101C80000028D8BF002005DD10F0010002D0029925
:101C9000491E02910099401C491C884206DA029AAA
:101CA000801C521E521E02928842F8DB2046FFF72B
:101CB0005DFF2068816841F00801816000F084FCCC
:101CC00006462068806810F0080F0ED000F07CFCFB
:101CD000801B0A2804D92068806810F0080F1BD1E7
:101CE0002068806810F0080FF0D12068816841F00A
:101CF0000401816000F068FC06462068806810F0EE
:101D0000040F19D000F060FC801B0A280FD920684E
:101D1000806810F0040F0AD0A06A20F0020040F0A2
:101D20001000A06284F8245003B00120F0BD2068A8
:101D3000806810F0040FE5D1A06A20F0020040F0A6
:101D40000100A06284F8245003B03846F0BD029828
:101D5000401E0290FCD1A9E72800002070B483B097
:101D60004FF0000CCDF808C090F824206446012AFA
:101D700001BF022003B070BC7047012280F824200C
:101D80004A681F23072A0DD205686E6B521E02EBAC
:101D90008202934026EA03030E6806FA02F21A430F
:101DA0006A631BE005680D2A0CD22E6BD21F02EB72
:101DB0008202934026EA03030E6806FA02F21A43EF
:101DC0002A630BE0EE6A0D3A02EB8202934026EAA8
:101DD00003030E6806FA02F21A43EA620A6807254C
:101DE00003680A2A0CD3DE680A3A02EB42029540E5
:101DF00026EA05058E6806FA02F22A43DA600AE04E
:101E00001E6902EB4202954026EA05058E6806FA35
:101E100002F22A431A610A68102A18BF112A0BD14C
:101E20000268A2F18043B3F592330BD0816A41F08E
:101E3000200181624FF0010C80F8244003B060461D
:101E400070BC7047936813F4000FF5D1936843F4A6
:101E50000003936009681029EED11549154A0968F5
:101E6000B1FBF2F101EB8101490002910091E3D055
:101E7000B1F1004F16D20029D8BF002105DD11F0C5
:101E8000010102D0029A521E0292009A491C521C71
:101E90009142D1DA029B891C5B1E5B1E0293914228
:101EA000F8DBC9E70299491E0291FCD1C4E70000A2
:101EB0002800002040420F000068C06C70470000FE
:101EC0002DE9F0414FF0000704003D4604BF01201A
:101ED000BDE8F081A06A002628B9E66284F8246093
:101EE000204600F07DF82046FFF710FE0146A06A6C
:101EF00000F010000843A06A1CBF40F01000A06270
:101F000063D120F4885040F00200A062E26960686A
:101F1000237B104347EA43020243A068B0F5807F69
:101F20001ABF012800204FF4807094F814C0BCF14F
:101F3000010F08D1F3B1A36A43F02003A362E36A5F
:101F400043F00103E3622368D3F804C02CF4694C26
:101F50004CEA0000586020688368DFF878C003EA24
:101F60000C0313438360A068B0F5807F18BF01287D
:101F70000DD108E0DFF860C0A3690CEB43331843D0
:101F800040F40060DFE7208A0005A0F58015206896
:101F9000C36A23F470032B43C362206880680F4B2D
:101FA0001840904207D1E662A06A20F0020040F09B
:101FB0000100A0620AE0A06A20F0020040F01000D8
:101FC000A062E06A40F00100E06201210846BDE83D
:101FD000F0810000FDF7E1FF00E0FFFFFE0E1FFFB4
:101FE00000B585B000210091019102910391006834
:101FF000A0F18041B1F592311CBF05B000BD0D4884
:10200000816941F400718161816901F40071049179
:10201000816941F0040181618069694600F0040032
:1020200004900120009003200190034800F0C8F9BB
:1020300005B000BD00100240000801402DE9F84342
:102040004FF000080D460446CDF8008000F0BCFAC1
:1020500006462068816811F4807F08D0A06A40F0AD
:102060002000A06284F824800120BDE8F883416844
:1020700011F4807F04BFC16A11F4700F1FD00220D9
:1020800000F070FF43490968B1FBF0F32068016973
:10209000414A11424FEA62014FEAA11228D1D0F819
:1020A0000CC04F111CEA070F22D1D0F810C01CEA57
:1020B000010F05BFC06810422920142029E00068E4
:1020C00010F0020F44D100BFB5F1FF3F0AD025B197
:1020D00000F07AFA801BA84204D92068006810F04A
:1020E000020F27D02068006810F0020FECD02FE01C
:1020F000D0F810C01CEA010F04BFC168114207D01C
:10210000026926490A4206BFC0680842FC2000D185
:10211000542003FB00F70098B84219D2B5F1FF3FF5
:1021200011D025B100F050FA801BA8420BD90098BD
:10213000874208D9A06A40F00400A06284F8248095
:102140000320BDE8F8830098401C0090B842E5D316
:1021500021686FF012000860A06A40F40070A0626D
:10216000206880684FF4602131EA000004BF207BC2
:1021700000280BD1A06A20F48070A062A06A10F43D
:10218000805F03D1A06A40F00100A0620020BDE89A
:10219000F88300002800002024499224499224005A
:1021A00070B5044690F82400012804BF022070BDD9
:1021B000012084F824002046FFF7D8FC02004FF0ED
:1021C000000018BF84F8240001D0104670BDA16A39
:1021D00021F0010121F4007141F48071A162DFF866
:1021E0008CC023682249634528D10D6815F4702FEF
:1021F00024D0A56A45F48015A5620D6815F4806F9A
:1022000005D0A56A25F4005545F48055A562A56A58
:1022100015F4805F08BFE06203D0E56A25F006058B
:10222000E56284F824006FF002001860206883687B
:102230004FF4602434EA030309D00EE0A56A25F4C4
:102240008015A5625D6815F4806FE0D0D9E7604520
:1022500008D1096811F4702F04D0816841F480110D
:102260008160B2E7816841F4A001F9E700280140EC
:102270000424014010B5044690F82400012804BF4E
:10228000022010BD012084F824002046FFF73EFC08
:1022900028B9A16A21F4885141F00101A16200210D
:1022A00084F8241010BD90F821200021022A05D0C6
:1022B0000422826380F820100120704702681368AE
:1022C00023F00E0313600268136823F00103136008
:1022D00090F84030D0F83CC0012202FA03F3CCF869
:1022E000043080F8212080F8201008467047000054
:1022F00010B590F821100024022903D00421816335
:10230000012439E001680A6822F00E020A600168BF
:102310000A6822F001020A60184A0168914208BF67
:1023200001211DD0164A914208BF102118D0154A2C
:10233000914208BF4FF4807112D0134A914208BFF6
:102340004FF480510CD0114A914208BF4FF48031B4
:1023500006D00F4A91420CBF4FF480114FF08071AC
:102360000C4A5160012180F82110002180F82010D2
:10237000416B002918BF8847204610BD0800024065
:102380001C0002403000024044000240580002405D
:102390006C0002400000024070B5044600F014F9E1
:1023A0000546B4F1FF3F02D004480078044400F031
:1023B0000BF9401BA042FAD370BD00001C000020A6
:1023C00000230A689C46002A08BF70472DE9F84F91
:1023D000704EDFF8BC914FF001080F2706F1040E94
:1023E0000A6808FA03F42240A2427DD14D68A5F1A3
:1023F000805AAAF5881A4D4577D077DC032D08BF9F
:102400004FF0000C1BD00DDC002D6ED0012D08BF4D
:10241000D1F80CC013D0022D04BFD1F80CC00CF1C0
:10242000080C0CE0112D04BFD1F80CC00CF1040C09
:1024300005D0122D04BFD1F80CC00CF10C0CB2F574
:10244000807F34BF0546051D4FEA830428BF203C2A
:10245000D5F800A007FA04FB2AEA0B0A0CFA04F4E8
:102460004AEA04042C604C6814F0805F64D04A4C43
:10247000A56945F00105A561A46904F00104009473
:1024800023F0030404F1804505F58035D5F808A054
:102490004FEA83744FEA147407FA04FB2AEA0B0A22
:1024A000A0F1804BBBF5843B18D0A0F1804BBBF56D
:1024B000863B08BF4FF0010B10D0A0F1804BBBF55D
:1024C000883B08BF4FF0020B08D0A0F1804BBBF552
:1024D0008A3B0CBF4FF0030B4FF0040B0BFA04F4D4
:1024E00044EA0A04AC6002E026E03FE02BE04C68DE
:1024F00014F4803F346814BF1443944334604C6830
:1025000014F4003FDEF8004014BF14439443CEF8A7
:1025100000404C6814F4801F204C256814BF1543FC
:10252000954325604C6814F4001F1D4C256814BFAA
:102530002A4325EA020222600A685B1CDA407FF423
:102540004FAFBDE8F88FBAF5881F0FD007DCBAF59A
:10255000803F18BFBAF5801F7FF471AF06E0BAF56F
:10256000001F18BFBAF5041F7FF469AFD1F808C087
:10257000BCF1000F08BF4FF0040C3FF460AFBCF19A
:10258000010F4FF0080C0CBF0461446157E70000D5
:102590000000111000040140001002400804014036
:1025A0000C0401408068084018BF01207047C268D1
:1025B00021EA0203114043EA014101617047002A08
:1025C00008BF090401617047014880687047000036
:1025D0001C000020002804BF0120704770B504468D
:1025E00090F83D00002520B984F83C50204600F0CA
:1025F000BFFB242084F83D002068016821F0010120
:1026000001602068016841F40041016020680168B0
:1026100021F40041016000F09FFE544A616891423C
:1026200003D85349814203D804E05249814201D979
:10263000012070BD50492368B0FBF1F1D3F804C00C
:102640002CF03F0C4CEA010CC3F804C063689A42BA
:1026500028BF4B1C07D24FF4967359434FF47A733B
:10266000B1FBF3F14B1C2168D1F820C02CF03F0CDA
:1026700043EA0C030B6261688A420FD34900401E93
:10268000B0FBF1F2521CC2F30B02042A31BF04204A
:10269000B0FBF1F0401CC0F30B0023E0A268002A5D
:1026A00053D001EBC10303EB0113A0F1010CBCFB00
:1026B000F3F35B1C43F480431B051B0D08BF012093
:1026C00010D0002A49D001EBC10202EB0111401EDB
:1026D000B0FBF1F0401CC0F30B0040F4804000BFA1
:1026E00040F400402168CA6922F0FF0222F44F4200
:1026F0001043C861D4E9070101432068026822F051
:10270000C00211430160D4E90310014320688268CC
:1027100022F0FF0222F4034211438160D4E9050153
:1027200001432068C26822F0FF021143C1602068A3
:10273000016841F0010101602564202084F83D001A
:10274000256384F83E50002070BD01EB4103A0F1E9
:10275000010CBCFBF3F35B1CAEE701EB4101401E37
:10276000B0FBF1F0401CC0F30B00B9E7A0860100FC
:1027700080841E0000093D0040420F002DE9F84F03
:1027800000260A9D99469246884604460096FFF721
:102790001BFF074694F83D00202840F0CA8119230A
:1027A0000122E5492046009701F04AFA002840F04E
:1027B000C08194F83C00012800F0BB81012084F81E
:1027C0003C002068016811F0010F03D1016841F05D
:1027D000010101602068016821F40061016022208C
:1027E00084F83D00102084F83E002664C4F824A03C
:1027F000A4F82A90608D2085D048E062E06A2168C4
:102800000A6842F480620A6008281CBF012810F59B
:10281000803F02D0206B112804D12068016841F468
:10282000807101602B4600224FF001112046009775
:1028300001F006FA4FF4007A30B12068006810F415
:10284000807F00F0E5803FE02069DFF8F4B2B0F56A
:10285000804F10D0062000EAD819206849F0F00116
:1028600001613B462A460BF10601204601F03BFA86
:1028700040B100F0CDB808F0FF0040F00101206841
:10288000016128E0206808F0FF0101613B462A460B
:102890005946204601F027FA002850D120684169A6
:1028A00081690091016841F4807101602B4600222A
:1028B0004FF001112046009701F0C2F938B12068AD
:1028C000006810F4807F3AD0C4F840A0A0E02068EF
:1028D00049F0F10101613B462A465946204601F084
:1028E00002FA00282BD1208D50B3012831D00228C4
:1028F000206801683DD041F4806101602068416931
:1029000080690090208D4FF02008002800F0088199
:10291000DFF830A26FF0100946F2A81B80B203283E
:1029200071D8012833D0022887492B464FF0000286
:102930002046009769D001F083F900286DD067E048
:102940002068416981690091016841F4007101606A
:10295000D8E72068016821F48061016072B62068C0
:10296000416981690091016841F40071016062B6BA
:10297000C8E741F40061016072B62068416981696D
:102980000091016821F48061016062B6BAE72068B5
:10299000406910F0400F1CD12068406910F0100F02
:1029A0000CD02068C0F81490266384F83D8084F829
:1029B0003E60206C206484F83C6029E0FFF704FE50
:1029C000C11BA94213D895B12068406910F0400F8F
:1029D000E2D020680069616A0870606A401C606229
:1029E000208D401E2085608D401E608593E026630B
:1029F00084F83D8084F83E60206C40F02000206424
:102A000084F83C6004E052E0FFE701F019F910B1EE
:102A10000120BDE8F88F72B625E02068016821F436
:102A20008061016072B620680069616A0870606A3E
:102A3000401C6062208D401E2085608D401E608598
:102A4000DAF80000B0FBFBF0C0EBC00000EB800048
:102A50000090401E00901BD02068406910F0040FC9
:102A600008BF0098F5D02068016841F4007101604A
:102A700020680069616A0870606A401C6062218D8C
:102A8000491E2185618D491E618562B6216837E046
:102A9000266384F83D8084F83E60206C40F020007E
:102AA000206462B684F83C600120BDE8F88F20689D
:102AB000406910F0400F11D12068406910F0100FEC
:102AC0007FF46FAFFFF780FDC11BA9428FD8002DA7
:102AD0008DD02068406910F0400FEDD0206800696B
:102AE000616A0870606A401C6062218D491E218500
:102AF000618D491E618521684A6912F0040F0AD070
:102B000009690170606A401C6062208D401E20854A
:102B1000608D401E6085208D00287FF4FFAE00BFD1
:102B200084F83D8084F83E6084F83C600020BDE875
:102B3000F88F0220BDE8F88F020010000000FFFFB0
:102B40000200010028000020040001002DE9F84FD8
:102B500099469246884604460A9DFFF735FD07468A
:102B600094F83D00202840F0F880192301227C4988
:102B70002046009701F064F8002840F0EE8094F8B9
:102B80003C00012800F0E980012084F83C00206826
:102B9000016811F0010F03D1016841F001010160EA
:102BA0002068016821F400610160212084F83D0063
:102BB000102084F83E0000262664C4F824A0A4F85F
:102BC0002A90608D20856748E062E06A08281CBF73
:102BD000012810F5803F02D0206B122804D1206814
:102BE000016841F4807101602B4600224FF0011111
:102BF0002046009701F024F840B12068006810F4E6
:102C0000807F1CBF4FF400702064A3E02069B0F502
:102C1000804F0ED0062000EAD81040F0F001206866
:102C200001613B462A465049204601F05CF828B134
:102C300090E0206808F0FE01016103E0206808F0E0
:102C4000FF0101613B462A464849204601F04BF806
:102C500000287FD12068416980690090208D4FF065
:102C60002008002859D03A462946204601F09FF80E
:102C700040B1206C04286DD12068016841F40071D6
:102C8000016067E0606A216800780861606A421C40
:102C90006262608D401E6085208D401E80B220855E
:102CA00021684B6913F0040F18BF00280AD0107870
:102CB0000861606A401C6062608D401E6085208DE6
:102CC000401E20852068406910F0040F22D1206842
:102CD000406910F4806F0FD021686FF48060486104
:102CE000266384F83D8084F83E60206C40F0040048
:102CF000206484F83C602AE0B5F1FF3F05D0FFF77F
:102D000063FCC11BA94217D8B5B12068406910F017
:102D1000040FDCD0208D0028A5D12068016841F483
:102D20000071016084F83D8084F83E6084F83C6066
:102D30000020BDE8F88F0DE0266384F83D8084F81C
:102D40003E60206C40F02000206484F83C60206CE1
:102D5000042891D00120BDE8F88F0220BDE8F88F4B
:102D6000020010000000FFFF080001000200010047
:102D700010B586B000210091019102910391036882
:102D80001F4C122103221F48A3F1804CBCF5A84C14
:102D90001ED0BCF5806C1CBF06B010BDA36943F00B
:102DA0000803A361A369039203F0080304934FF49B
:102DB0004063CDE900316946FFF702FBE06940F46A
:102DC0008000E061E06900F48000049006B010BD6E
:102DD000A36943F00803A361A369039203F0080306
:102DE0000493C023CDE900316946FFF7E9FAE069B1
:102DF00040F40010E061E06900F40010E5E7000035
:102E000000100240000C0140024881680278114421
:102E1000816070471C000020074810B5016841F030
:102E200010010160032000F08BF80F2000F006F87D
:102E300000F024F8002010BD0020024070B50D4DB8
:102E400004464FF47A712878B1FBF0F00A4909681A
:102E5000B1FBF0F000F0C0FC48B9102C07D2002202
:102E60002146501E00F03AF800206C6070BD012031
:102E700070BD00001C000020280000200D4881B01B
:102E8000816941F001018161816901F001010091D5
:102E9000C16941F08051C161C06900F0805000906B
:102EA0000548416821F0E06141F00071416001B0E6
:102EB0007047000000100240000001400028B8BF29
:102EC000704700F01F01012202FA01F14009800061
:102ED00000F1E020C0F8001170470000174B10B45B
:102EE0001B68C3F30223C3F1070CBCF1040F88BFB6
:102EF0004FF0040C1C1D072C34BF0023DB1E0124E3
:102F000004FA0CFCACF1010C0CEA0101994004FA42
:102F100003F35B1E1A40114300284FEA0111A1BFC1
:102F200000F1E02080F8001410BC704700F00F00A2
:102F300000F1E02080F8141D10BC70470CED00E09B
:102F4000074900F007000A684FF6FF031A4042EAFB
:102F5000002040F0FD7040F0806008607047000085
:102F60000CED00E010B586B001460FF2D80C9CE8DD
:102F70000D108DE80D1037A0374C0068049000202C
:102F800001292CD0022951D010291CBF06B010BD38
:102F90006168226812F0807F04BF06B010BDC1F3E3
:102FA000834211F4803F1DF8020004BF2B494843BF
:102FB00008D0616804AAC1F34041515C284AB2FBC1
:102FC000F1F14843616811F4800F1CBF06B010BDD9
:102FD0004000244906B0A1FB0010400810BD216A42
:102FE00001F44072B2F5807F06D111F0020F1EBFCE
:102FF0004FF4004006B010BDB2F5007F07D1626A01
:1030000012F0020F1EBF49F6404006B010BD4FF44B
:10301000407232EA01011CBF06B010BD216811F4F4
:10302000003F18BF4FF2244006B010BD00F0A4F9D5
:10303000616806B0C1F38131491C4900B0FBF1F071
:1030400010BD000002030405060708090A0B0C0D59
:103050000E0F1010010200000010024000093D0098
:1030600000127A00ABAAAAAA2DE9F8430446007818
:10307000DFF8148110F0010F6AD0D8F81C00002787
:1030800010F0805F0BD1D8F81C0040F08050C8F8D9
:103090001C00D8F81C00012700F0805000903B4E27
:1030A000306810F4807F14D1306840F48070306054
:1030B000FFF78AFA0546306810F4807F09D100BF17
:1030C000FFF782FA401B64282BD8306810F4807F09
:1030D000F6D0D8F8200010F440702AD0A18801F46E
:1030E0004071814225D0D8F82000012220F440719F
:1030F0002748026000220260C8F8201011F0010F7A
:1031000017D0FFF761FA0546D8F8200010F0020F3B
:1031100008BF41F288360CD1FFF756FA401BB04287
:1031200002D90320BDE8F883D8F8200010F0020F80
:10313000F2D0D8F82000616820F440700843C8F845
:1031400020002FB1D8F81C0020F08050C8F81C00D7
:10315000207810F0020F07D0D8F80400A16820F4FE
:1031600040400843C8F80400207810F0100F07D042
:10317000D8F80400E16820F480000843C8F804008F
:103180000020BDE8F88300000010024000700040FD
:1031900040044242002804BF012070472DE9F0435B
:1031A000DFF89081054685B0D8F800000E4600F0A3
:1031B0000700B0420CD2D8F8000020F007003043DE
:1031C000C8F80000D8F8000000F00700B04265D150
:1031D0002868594C10F0020F14D010F0040F03D0DF
:1031E000606840F4E0606060287810F0080F03D059
:1031F000606840F4605060606068A96820F0F0008A
:1032000008436060287810F0010F34D06868012806
:1032100021D02168022823D011F0020F3ED061682E
:1032200021F0030108436060FFF7CEF907466068AC
:10323000696800F00C00B0EB810F18BF41F28839CB
:1032400019D000BFFFF7C0F9C01B48450CD905B025
:103250000320BDE8F083216811F4003FDFD11DE0B9
:1032600011F0007FDBD119E06068696800F00C00A4
:10327000B0EB810FE6D1D8F8000000F00700B042B3
:1032800010D9D8F8000020F007003043C8F800003B
:10329000D8F8000000F00700B04203D005B00120CC
:1032A000BDE8F083287810F0040F05D06068E96865
:1032B00020F4E06008436060287810F0080F06D022
:1032C0006068296920F4605040EAC10060601B49D1
:1032D0000FC98DE80F001A4800680490616819480A
:1032E00001F00C02042A14D0082A12D1C1F383423F
:1032F00011F4803F1DF8020004BF1349484308D071
:10330000616804AAC1F34041515C0E4A5043B0FBCE
:10331000F1F061680D4AC1F30311515CC8400C49DA
:1033200008600C480068FFF789FD05B00020BDE883
:10333000F08300000020024000100240F03300083B
:103340000034000800127A0000093D0040530008D4
:103350002800002020000020044805490068496832
:10336000044AC1F30221515CC84070472800002084
:10337000001002405053000804480549006849689D
:10338000044AC1F3C221515CC840704728000020A4
:10339000001002405053000815A186B00FC98DE8F7
:1033A0000F0017A0174A006804905168164801F0F2
:1033B0000C03042B04BF06B07047082B1CBF06B0DB
:1033C0007047C1F3834311F4803F1DF8030001BF30
:1033D0000E49484306B07047516804AAC1F3404102
:1033E000515C094A06B05043B0FBF1F07047000051
:1033F00002030405060708090A0B0C0D0E0F101036
:10340000010200000010024000127A0000093D0095
:10341000002804BF012070472DE9F84F04460078CA
:10342000E84D10F0010F59D0686800F00C00042836
:1034300008D0686800F00C0008280CD1686810F407
:10344000803F08D0286810F4003F47D0606800280B
:1034500000F0B28142E06068B0F5803F04BF2868A8
:1034600040F480300AD010B1B0F5A02F11D02868F8
:1034700020F480302860286820F48020286060686C
:10348000D0B1FFF7A1F80646286810F4003F08D035
:1034900024E0286840F480202860286840F48030C8
:1034A000ECE7FFF791F8801B642800F2368128686A
:1034B00010F4003FF5D011E0FFF786F806462868C3
:1034C00010F4003F0AD000BFFFF77EF8801B64288D
:1034D00000F22381286810F4003FF5D12078BA4E1D
:1034E00010F0020F4FF0010B4FF0000845D0686854
:1034F00010F00C0F14D0686800F00C00082804BF0E
:10350000686810F4803F0BD0206918B3C6F800B08B
:10351000FFF75AF80746286810F0020F09D011E0AB
:10352000286810F0020F1CBF206901280AD000F0A3
:1035300043B9FFF749F8C01B02287DD8286810F06E
:10354000020FF6D02868616920F0F80040EAC10057
:10355000286012E0C6F80080FFF736F807462868B2
:1035600010F0020F09D000BFFFF72EF8C01B022891
:1035700062D8286810F0020FF6D1207810F0080FFA
:1035800035D09248A169F9B1C0F800B0FFF71CF836
:103590000746686A10F0020F09D100BFFFF714F860
:1035A000C01B022848D8686A10F0020FF6D088487D
:1035B00001684FF4FA50B1FBF0F0009000BF0098A2
:1035C000411E0091FAD212E0C0F80080FEF7FCFF25
:1035D0000746686A10F0020F09D000BFFEF7F4FF3B
:1035E000C01B022828D8686A10F0020FF6D1207894
:1035F00010F0040F79D0E8694FF0000A10F0805FF6
:1036000009D1E86940F08050E861E8694FF0010AAB
:1036100000F080500090DFF8BC91D9F8000010F461
:10362000807F19D1D9F8000040F48070C9F80000FB
:10363000FEF7CAFF074600E06FE0D9F8000010F47B
:10364000807F09D1FEF7C0FFC01B642865D8D9F878
:10365000000010F4807FF5D0E068012804BF286ADC
:1036600040F0010009D008B1052813D0286A20F0E5
:1036700001002862286A20F004002862E06841F214
:103680008837D0B1FEF7A0FF8146286A10F0020FFC
:1036900008D023E0286A40F004002862286A40F03D
:1036A0000100EAE7FEF790FFA0EB0900B84234D82A
:1036B000286A10F0020FF5D010E0FEF785FF814672
:1036C000286A10F0020F09D0FEF77EFFA0EB090078
:1036D000B84222D8286A10F0020FF5D1BAF1000FD3
:1036E00003D0E86920F08050E861E069F0B36968D0
:1036F00001F00C01082950D00228C6F860800FD0D4
:10370000FEF762FF0446286810F0007F57D000BF24
:10371000FEF75AFF001B02283AD90320BDE8F88FB4
:10372000FEF752FF0746286810F0007F09D000BF5F
:10373000FEF74AFFC01B0228EFD8286810F0007F70
:10374000F6D1206AB0F5803F05D16868A16820F401
:10375000003008436860D4E908010843696821F42F
:10376000741108436860C6F860B000E027E0FEF717
:103770002BFF0446286810F0007F20D1FEF724FFBD
:10378000001B0228C9D8286810F0007FF6D016E088
:10379000286810F0007FBBD111E0012808BFBDE808
:1037A000F88F6868226A00F48031914204D1616A1E
:1037B00000F47010884202D00120BDE8F88F00208C
:1037C000BDE8F88F001002400000424280044242EF
:1037D0002800002000700040411EB1F1807F24BF0E
:1037E000012070474FF0E0204161054AF02182F846
:1037F000141D002181610721016100207047000034
:103800000FE000E070477047F8B5026804461068A2
:10381000D168536910F00F0F4FF020054FF00006EC
:1038200052D003F0010C01F490775CEA070777D0DF
:1038300010F0010F18BF11F4807F03D0226C42F00A
:103840000102226410F0040F18BF13F0010F03D01F
:10385000226C42F00202226410F0020F18BF13F033
:10386000010F03D0226C42F00402226410F0080F12
:103870001CBF01F0200252EA0C0203D0226C42F07D
:1038800008022264226C002A08BFF8BD10F0200F45
:103890001EBF11F0200F204600F03CFB206841695C
:1038A000226CC1F3801102F0080211433DD0C168BF
:1038B00021F49071C1602068416921F001014161EA
:1038C000206B01280BD00FE010F0200F18BF11F073
:1038D000200F2FD02046BDE8F84000F01BBB206829
:1038E000C16821F01001C16084F83E502663206851
:1038F000416911F0400F14D0416921F0400141614C
:10390000A06B70B15B494163A06BFEF7F1FC00282E
:1039100008BFF8BDA06B416B01B0BDE8F04008479F
:1039200008E02046FFF76FFFF8BD2046FFF76BFF6A
:103930002664F8BD236B012B59D110F0100F18BF6E
:1039400011F0100F53D0106850680090506910F0BB
:10395000400F2ED0A16B086840680004000C1CBF0B
:10396000A38D834298BFF8BDE0858869202818D0D0
:10397000D06820F48070D0602068416921F0010196
:1039800041612068416921F04001416184F83E5065
:1039900026632068C16821F01001C160A06BFEF7AA
:1039A00082FCA08DE18D401A81B22046FFF72AFFEC
:1039B000F8BDA08DE18D401A81B2E08D002814BFC2
:1039C0000029F8BDD06820F49070D060206842696A
:1039D00022F00102426184F83E5026632068C268EA
:1039E00022F01002C2602046FFF70CFFF8BD10F075
:1039F000800F18BF11F0800F2BD094F83D002128C4
:103A000018BFF8BDA068B0F5805F04BF206900282A
:103A1000206A16D0411C2162216800784860E08C41
:103A2000401E0004000CE08418BFF8BD2068C16887
:103A300021F08001C1602068C16841F04001C1608F
:103A4000F8BD0088C0F308005060206A801C206226
:103A5000E5E710F0400F14BF11F0400FF8BD20460D
:103A6000D16821F04001D16084F83D5000F0E6F8C3
:103A7000F8BD0000053F0008002804BF0120704782
:103A800070B5044690F83D00002520B984F83C50FC
:103A9000204600F023F8242084F83D002068C16807
:103AA00021F40051C160204600F092FA20680169BB
:103AB00021F4904101612068416921F02A014161AE
:103AC0002068C16841F40051C1602564202084F859
:103AD0003D0084F83E00002070BD000030B585B088
:103AE000002400940194029403940068A0F18041A2
:103AF000B1F59C311CBF05B030BD1748816941F458
:103B000080418161816901F480410491816941F0C2
:103B1000040181618069114D00F0040004904FF4AC
:103B2000007000900220019003200390694628460F
:103B3000FEF746FC2815CDE90004694628460294A4
:103B4000FEF73EFC002201212520FFF7C7F92520C2
:103B5000FFF7B4F905B030BD001002400008014085
:103B600090F83E30202B24D1002912BF002A0120DA
:103B7000704790F83C30012B1BD000230363816217
:103B80008285C2850364222180F83E1080F83C3093
:103B90000168CA6842F48072CA6001684A6942F0EA
:103BA00001024A610068C16841F02001C160184605
:103BB0007047022070470000174810B501780629A9
:103BC00018BF10BD417C1548302902D031290FD0D3
:103BD0001BE000224FF48041FEF7F1FC032201219B
:103BE0000F4800F089FE0FA10D4800F01EFE0CE00A
:103BF00001229103FEF7E3FC03220121084800F0B3
:103C00007BFE0AA1064800F010FEBDE8104001222C
:103C100008490948FFF7A4BF000000200010014038
:103C2000540100204C4544204F4646004C4544205A
:103C30004F4E200011000020040100207047FEE7D5
:103C40002DE9F0470446C1F30748DDF820900068ED
:103C50001E4617460D46B8F1010F06D0806925EAC9
:103C600000000004000C1ED005E0406925EA0000B9
:103C70000004000C17D00020B8422FD1B6F1FF3F4E
:103C800006D0FEF7A1FCA0EB0900B0420DD866B14A
:103C90002068B8F1010F18D0806925EA00000004FF
:103CA000000C1ED017E00120E6E700202063202151
:103CB00084F83D1084F83E00216C41F0200121641D
:103CC00084F83C000120BDE8F087406925EA000047
:103CD0000004000C05D00020B842CFD00020BDE881
:103CE000F0870120F8E72DE9F0470446C1F30748C3
:103CF0000068994615460F46B8F1010F24D0806937
:103D000027EA00000004000C39D000264FF0200AFA
:103D10002068406910F4806F1DD02068016841F46C
:103D20000071016021686FF480604861266384F847
:103D30003DA084F83E60206C40F00400206484F8CC
:103D40003C600120BDE8F087406927EA00000004DC
:103D5000000CDAD113E0B5F1FF3F06D0FEF734FCDA
:103D6000A0EB0900A8420DD865B12068B8F1010F99
:103D700016D0806927EA00000004000CC8D100209A
:103D8000BDE8F087266384F83DA084F83E60206C8F
:103D900040F02000206484F83C600120BDE8F087FA
:103DA000406927EA00000004000CB1D1E7E72DE9E3
:103DB000F0410446006817460D46406910F0800F38
:103DC00004BF4FF02008002624D12068406910F479
:103DD000806F11D021686FF480604861266384F899
:103DE0003D8084F83E60206C40F00400206484F83C
:103DF0003C600120BDE8F081B5F1FF3F05D0FEF742
:103E0000E3FBC01BA84208D83DB12068406910F010
:103E1000800FDAD00020BDE8F081266384F83D8071
:103E200084F83E60206C40F02000206484F83C6000
:103E30000120BDE8F081FEE7FEE7704701607047B2
:103E400070B584B00546002064260C468DF80C0041
:103E50000096012303AAD0212868FEF777FE00967A
:103E6000072301AAD0212868FEF788FC9DF80400EA
:103E700000F00F01000900EB800001EB4000207012
:103E80009DF8050000F00F01000900EB800001EB38
:103E9000400060709DF8060000F00F01000900EB83
:103EA000800001EB4000A0709DF8070000F00F01BA
:103EB000000900EB800001EB4000E0709DF8080075
:103EC00000F00F01000900EB800001EB40002071C1
:103ED0009DF8090000F00F01000900EB800001EBE4
:103EE000400060719DF80A0000F00F01000900EB2E
:103EF000800001EB4000A07104B070BD7047FEF778
:103F000083BF704710B5406A0021C185C184FFF7A7
:103F10007AFC10BD08B590F83E1022291CBF022083
:103F200008BD8268B2F5805F04BF01690029816A1B
:103F300016D0B2F5805F1BD0002A04BF0269002AA8
:103F400016D00268526802F07F020A70816A491C2A
:103F50008162C18D491E0904090CC1850BD021E085
:103F600002685268C2F308020A80816A891CEFE77E
:103F700002685268E9E70168CA6822F02002CA6054
:103F80000168CA6822F48072CA6001684A6922F036
:103F900001024A61202180F83E10016B012903D003
:103FA000FFF70AFE002008BD002101630168CA680E
:103FB00022F01002CA6001680A6812F0100F02D0E5
:103FC0000A6849680091818DFFF71CFCEAE7000050
:103FD00070B5044600680169E26821F4405111435C
:103FE00001612169A0680843616901432068C268D2
:103FF00022F4037222F4A0521143C1602068416987
:10400000A26921F44071114341612068A0F180410F
:10401000B1F59C313CD0FFF79FF900BF00EBC00128
:1040200001EB001260681C498000B2FBF0F3A1FBB9
:104030000353B2FBF0FC5B096FF018056B430CEB0C
:10404000830C322303EB0C1CA1FB0C5C4FEA5C1CC1
:104050000CF0F005B2FBF0FCA1FB0C6C4FEA5C1C11
:1040600005EB0C1CB2FBF0F5B2FBF0F0A1FB00205D
:1040700040096FF01802504305EB800003EB00107D
:10408000A1FB00102168C0F343106044886070BD3C
:10409000FFF772F9C2E700001F85EB510148FFF7F7
:1040A000B3BB000004010020FEE7490050EAC12034
:1040B00018BF04204A0D18BF40F0010040F2FF7203
:1040C000B2EB515F08BF40F00200012808BF052095
:1040D000704730380A2801D201207047002070470D
:1040E00006490A78062A04BF00220A70044A904250
:1040F00018BF70470878401C087070470000002007
:1041000060010020704770B5044680780D46A842D3
:1041100008BF70BDFEF758FAFEF756FAA57070BDDD
:1041200070B50446818A0069FEF73CFAA178012542
:10413000814204D0A070E570FEF746FA6060E07836
:10414000002640B1FEF740FA6168401A0F2802D3FA
:10415000A0782070E67020786178884208BF70BD32
:1041600030B12046FFF7CEFF26732078607070BD17
:1041700025732046FFF7B4FFFEF726FAA060F4E7A8
:10418000016182827047000038B506220121324861
:1041900000F0B2FB314C32A1A07A0090637A227A0F
:1041A00004F10C0000F041FBE079082828BF38BD7D
:1041B000DFE800F051040F1A25303B4602220121AE
:1041C000254800F099FBBDE8384029A1224800F0BD
:1041D0002CBB02220121204800F08EFBBDE83840B4
:1041E00025A11D4800F021BB022201211A4800F040
:1041F00083FBBDE8384022A1174800F016BB01221E
:104200001146154800F078FBBDE838401EA1124861
:1042100000F00BBB022201210F4800F06DFBBDE84E
:1042200038401BA10C4800F000BB022201210A48C3
:1042300000F062FBBDE8384017A1074800F0F5BA6E
:1042400002220121044800F057FBBDE8384014A1C8
:10425000014800F0EABA38BD5401002048010020AE
:10426000253032642F253032642F2530326400002F
:104270004D6F6E2C000000005475652C000000008E
:104280005765642C00000000546875722C00000013
:104290004672692C000000005361742C000000007D
:1042A00053756E2C0000000010B5012100F0FFFADC
:1042B000BDE810400120FEF76FB800002DE9F8437B
:1042C000FD4DFE4CFE4F2878012830D0FD4E4FF0BA
:1042D000010802284ED0042800F01381052800F0C0
:1042E0008481062818BFBDE8F883F748FFF7DCFF94
:1042F00000221146F44800F0FFFAF4A1F24800F061
:1043000094FA2878062818BFBDE8F883F448FFF728
:1043100007FF2878062818BFBDE8F883687C302896
:1043200000F0BE81312800F0248200F030BA002273
:104330004FF480413846FEF742F9E348FFF7B4FFF7
:1043400000221146E04800F0D7FAE6A1DE4800F06E
:104350006CFA04220021DC4800F0CEFA20790090AB
:104360006379A279E0A1D84800F05FFABDE8F8438C
:10437000FFF70ABFD448FFF797FF00221146D24843
:1043800000F0BAFADCA1D04800F04FFA0022012177
:10439000CD4800F0B1FADCA1CB4800F046FAB146B6
:1043A00008214846FEF7FEF806460146DA48FFF7C0
:1043B000AAFE002EF4D1C448FFF776FF4FF4AF7089
:1043C000FDF7EAFFD5A1C04800F02FFA0022012135
:1043D000BD4800F091FAD2A1BB4800F026FA85F85A
:1043E000058000F0A7FBB848FFF75EFF211DB3482A
:1043F000FFF726FD04220021B34800F07DFA207962
:1044000000906379A279B8A1AF4800F00EFA0322B8
:104410000121AD4800F070FAC3A1AB4800F005FAE5
:10442000A07995F91210884238D1607995F9141065
:10443000884233D1207995F9161088422ED1012275
:1044400091033846FEF7BBF8FEF7BEF80646FEF7C6
:10445000BBF8801BB0F57A7F20D2A07995F91310B4
:1044600088420FD1607995F9151088420AD12079D8
:1044700095F91710884205D100224FF48041384643
:10448000FEF79DF89648FFF74BFE2878042805D0E4
:10449000FEF79AF8801BB0F57A7FDED3A17995F903
:1044A0001300814224D1607995F9151088421FD1FB
:1044B000207995F9171088421AD100224FF48041D3
:1044C0003846FEF77CF8FEF77FF80646FEF77CF8E4
:1044D000801BB0F57A7F0BD28148FFF721FE287848
:1044E000042805D0FEF770F8801BB0F57A7FF3D36F
:1044F0007B48FFF715FE287804287FF477AFBDE8E6
:10450000F883687A58B97048FFF7CEFE002211464A
:104510006D4800F0F1F987A16B4800F086F985F845
:104520000980287928B900224FF480413846FEF7E7
:1045300046F828794FF0030210F0010F62484FF05F
:10454000010106D000F0D8F97EA15F4800F06DF9B6
:1045500005E000F0D1F97DA15B4800F066F920216B
:104560003046FEF71FF8A87201467A48FFF7CBFDE8
:10457000A87A002818BFBDE8F8834FF48041384678
:10458000FEF715F828794FF00302401C287110F04F
:10459000010F4D484FF0010106D000F0ADF969A1BF
:1045A000494800F042F905E000F0A6F967A1464845
:1045B00000F03BF9FEF708F80446FEF705F8001B8B
:1045C000B0F5FA7F28BFBDE8F8834548FFF7A8FD9E
:1045D0002878052808BFBDE8F883FDF7F5FF001B24
:1045E000B0F5FA7FF1D3BDE8F88300202871364892
:1045F000FFF75AFE00221146334800F07DF956A11C
:10460000314800F012F9FDF7DFFF04465548FDF789
:104610000FFB5448FDF7C4FD64215248FDF70EFD21
:104620005048FDF749FC40F6D861A86188420ED990
:10463000012291033846FDF7C2FF032201212248DF
:1046400000F05AF93FA1204800F0EFF80EE00022F8
:104650004FF480413846FDF7B2FF032201211A488A
:1046600000F04AF939A1184800F0DFF83D48FDF79D
:1046700001FEFDF7A9FF001B41F28836B0420AD2C5
:104680001748FFF74DFD2878062804D0FDF79CFF5A
:10469000001BB042F4D3BDE8F8431148FFF740BD1A
:1046A00000224FF480413846FDF789FF03220121A3
:1046B000054800F021F957E00000002048010020E3
:1046C0000010014000080140540100204D6F646556
:1046D00020353A426C7565746F6F74680000000095
:1046E000600100204D313A00253032643A253032E5
:1046F000643A25303264000042746E3428436F6E91
:1047000074696E756529000042746E33282B292068
:1047100042746E32282D2900A80100204D323A0043
:10472000534554204F4E00005245414C5F5F544961
:104730004D4500004D6F646520333A4D616E7561E3
:104740006C0000004C4544204F4E20004C45442056
:104750004F464600780100204D6F646520343A20B2
:10476000414443002C0000200E490F4800F05DF842
:104770000DE0012291033846FDF721FF03220121BC
:10478000094800F0B9F80949074800F04EF801223D
:1047900007490848FFF7E4F9287806283FF4B6AD42
:1047A000BDE8F883243C0008540100202C3C00089C
:1047B000110000200401002010B5044641605000A3
:1047C0002070207A332140F004002072204600F04F
:1047D0006EF83221204600F06AF80520FDF7DCFD76
:1047E0000121204600F063F80520FDF7D5FD0C21DE
:1047F000204600F05CF80520FDF7CEFD02212046A2
:1048000000F055F80520FDF7C7FD8021204600F097
:104810004EF8217A204621F00101217241F0080171
:1048200000F045F80820607210BD0FB42DE9F0418A
:1048300088B0054610AA01A80F99FBF71BFD0024BC
:1048400001AEF0274FF0640825E0315D6A7A01F08F
:10485000F00040F00503134340F0010010438DF8D1
:10486000183007EA01118DF81900687A41F0050245
:1048700010438DF81A00687A41F0010108438DF861
:104880001B00CDF800802978042306AA6868FEF78B
:104890005DF9601CC4B201A8FBF7FEFC844238BF7E
:1048A000102CD2D308B0BDE8F0015DF814FB00B5C0
:1048B00001F0F002F02303EA0111437A42F0040C04
:1048C00083B043EA0C0C8DF804C01A438DF8052020
:1048D000427A41F004031A438DF80620427A0423F9
:1048E00011438DF80710642100910178406801AAF6
:1048F000FEF72CF903B000BD08B506A31B680093B2
:104900001DF801101144C9B241F08001FFF7CFFF3B
:1049100008BD00000040145494B0FEF77DFA002456
:1049200002260A940E940125102000961394CDE9D6
:104930000450019402940394069408940C944FF448
:1049400060100B940D941194099010941294079692
:104950006846FEF75DFD08B172B6FEE70F20CDE9AF
:104960000A064FF48060CDE90C4002210AA80E949B
:10497000FEF710FC08B172B6FEE74FF4004012904B
:10498000109610A8FEF770FB08B172B6FEE75A4FFA
:10499000402239465948FFF7F3FB20223946584850
:1049A000FFF7EEFB574A0094019402940394906938
:1049B00040F010009061906900F010000490906940
:1049C00040F004009061906900F004000490906948
:1049D00040F0080090619069DFF82C8100F0080039
:1049E000049000224FF4C0414046FDF7E8FD4FF42B
:1049F000C040CDE90005CDE9025669464046FDF7C5
:104A0000DFFC7820CDE90004694602953846FDF7C1
:104A1000D7FC3F483D493F4F0160C0E901740E1487
:104A2000C0E9034644618461C4610462FDF7D2FDBC
:104A300008B172B6FEE73948374901604FF41651A4
:104A4000C0E901140C21C460C0E904418461C4615F
:104A5000FFF712F808B172B6FEE73248304901603C
:104A6000C0E90174C0E9034644618461C461046221
:104A7000FDF7B0FD08B172B6FEE72C480094019432
:104A800002942949846001600473047505614FF440
:104A900060214460C161FDF713FA08B172B6FEE708
:104AA00007200094CDE9015069462048FDF756F9EA
:104AB00008B172B6FEE71649272201F1F800FFF7A8
:104AC0007BFE134901F1EC00FFF7B8F9184D00BF68
:104AD000FDF77AFD4FEA0004FDF776FD001B142870
:104AE000FAD30648FFF71CFB291D1148FFF7A8F968
:104AF000FFF7E4FBECE70000000801406001002044
:104B000078010020001002400010014000540040D5
:104B10005C000020A0860100003801400401002054
:104B200000580040B0000020002401402C0000206C
:104B3000480100202DE9F84FFE4CFF4D4FF0180BB7
:104B400060794FF0FF36012861D1FC48FFF7E8FAA1
:104B50002078032814D00A220121F948FFF7CCFE5F
:104B6000F8A1F748FFF761FE10212846FDF71AFD6E
:104B7000E0720146F448FFF7C6FAE07A10B117E098
:104B800064204DE094F901001728A8BF6670607892
:104B9000401C6070C820FDF7FFFB04220021E8489C
:104BA000FFF7AAFE94F90120E8A1E548FFF73DFED2
:104BB00020212846FDF7F6FC2073E17AE648FFF74E
:104BC000A2FA207BB0B994F901000028D8BF84F87C
:104BD00001B06078401E6070C820FDF7DDFB042244
:104BE0000021D748FFF788FE94F90120D7A1D448C7
:104BF000FFF71BFE08212846FDF7D4FC07460146B7
:104C0000D648FFF780FA3FB1607901289DD06079DE
:104C10003C27022807D06DE0022060714FF4AF708E
:104C2000FDF7BAFBF3E7C548FFF77AFA20780328C7
:104C300014D00A220121C248FFF75EFEC8A1C04875
:104C4000FFF7F3FD10212846FDF7ACFC6073014629
:104C5000BD48FFF758FA607B10B119E0642051E0BD
:104C600094F902003B28A8BFA670A078401CA07051
:104C7000C820FDF791FB04220021B148FFF73CFE5C
:104C800094F9023094F90120B6A1AD48FFF7CDFDAB
:104C900020212846FDF786FCA073E17AAE48FFF795
:104CA00032FAA07BB8B994F902000028D8BFA770E7
:104CB000A078401EA070C820FDF76EFB04220021E2
:104CC0009F48FFF719FE94F9023094F90120A5A13D
:104CD0009B48FFF7AAFD08212846FDF763FC8046A4
:104CE00001469E48FFF70FFAB8F1000F06D0607931
:104CF000022898D06079032807D074E003206071FF
:104D00004FF4AF70FDF748FBF4E78C48FFF708FA63
:104D10002078032814D00A2201218948FFF7ECFDEE
:104D200094A18748FFF781FD10212846FDF73AFC42
:104D3000E07301468448FFF7E6F9E07B18B11DE017
:104D4000642000F0CDB894F903003B28A8BFE670BA
:104D5000E078401CE070C820FDF71EFB0422002113
:104D60007748FFF7C9FD94F90300009094F90230E9
:104D700094F9012080A17248FFF757FD20212846B1
:104D8000FDF710FC2074E17A7348FFF7BCF9207C32
:104D9000D0B994F903000028D8BFE770E078401E2E
:104DA000E070C820FDF7F8FA042200216448FFF7FC
:104DB000A3FD94F90300009094F9023094F90120C6
:104DC0006DA15F48FFF731FD08212846FDF7EAFB9A
:104DD000804601466148FFF796F9B8F1000F7DD093
:104DE0006079032891D06078A074A0782075E0786D
:104DF000A0750A2201215248FFF77EFD62A15048AA
:104E0000FFF713FD042200214D48FFF775FD94F9CB
:104E10001600009094F9143094F9122056A14848D5
:104E2000FFF703FD042201214548FFF765FD57A167
:104E30004348FFF7FAFC4FF0010908212846FDF727
:104E4000B1FB804601464548FFF75DF9B8F1000F18
:104E500049D03A48FFF764F920780328EDD164205F
:104E6000FDF79AFA3648FFF71FFAA0794FF0000ACB
:104E700000285DD03148FFF753F900221146304831
:104E8000FFF73AFD44A12E48FFF7CFFC0022012195
:104E90002B48FFF731FD41A12948FFF7C6FC00224E
:104EA00001212748FFF728FD3FA12548FFF7BDFC5A
:104EB0000A2201212248FFF71FFD3EA12048FFF7EB
:104EC000B4FC10212846FDF76DFBE07201461E4838
:104ED000FFF719F9E07A58B125E0FFE74FF4AF701A
:104EE000FDF75AFA7FE784F806904FF4FA70B7E7B7
:104EF00094F901001728A8BF66706078401C6070A4
:104F0000C820FDF749FA042200210D48FFF7F4FC00
:104F100094F90300009094F9023094F9012016A14D
:104F20000748FFF782FC20212846FDF73BFB43E0C2
:104F300082E0000000000020000801406001002025
:104F40005401002048720000900100202530326496
:104F50003A30303A3030000078010020A8010020BB
:104F60004D696E00253032643A253032643A303073
:104F70000000000053656300253032643A2530326A
:104F8000643A253032640000202020004F4E204437
:104F90004F4E4521000000004D323A0020202020D5
:104FA0002020202020202000534554204F4646201A
:104FB00020000000487220002073E17AB648FFF715
:104FC000A2F8207BE0B994F901000028D8BF84F84A
:104FD00001B06078401E6070C820FDF7DDF9042242
:104FE0000021AE48FFF788FC94F90300009094F983
:104FF000023094F90120AFF28001A848FFF715FCB8
:10500000A748FFF78DF8207803283AD008212846D2
:10501000FDF7C8FA80460146A248FFF774F8B8F1D8
:10502000000F7FF44EAF84F806A084F807904FF489
:10503000FA7000BFFDF7B0F9E07900287FD09848FA
:10504000FFF76EF8002201219448FFF755FCAFF2FC
:10505000A8019248FFF7E9FB092201218F48FFF7D9
:105060004BFC91A18D48FFF7E0FB10212846FDF78E
:1050700099FA6073E17A8E48FFF745F8607B10B1CA
:105080001DE06420D6E794F902003B28A8BFA67073
:10509000A078401CA070C820FDF77EF904220021F2
:1050A0007E48FFF729FC94F90300009094F9023040
:1050B00094F90120AFF240117848FFF7B6FB2021A8
:1050C0002846FDF76FFAA073E17A7348FFF71BF8E3
:1050D000A07BC0B994F902000028D8BFA770A078BF
:1050E000401EA070C820FDF757F9042200216B482C
:1050F000FFF702FC94F9023094F90120AFF29C1101
:105100006648FFF792FB6648FFF70AF82078032805
:105110003AD008212846FDF745FA80460146614805
:10512000FEF7F1FFB8F1000F9FD184F807A084F8D3
:1051300008904FF4AF7000E001E0FDF72DF9207A00
:1051400000287DD05648FEF7EBFF0022012153488E
:10515000FFF7D2FBAFF2B0115048FFF766FB092210
:1051600001214E48FFF7C8FB52A14C48FFF75DFBF9
:1051700010212846FDF716FAE073E17A4C48FEF755
:10518000C2FFE07B10B11DE06420D4E794F9030076
:105190003B28A8BFE670E078401CE070C820FDF70F
:1051A000FBF8042200213D48FFF7A6FB94F9030019
:1051B000009094F9023094F90120AFF2442137486D
:1051C000FFF733FB20212846FDF7ECF92074E17A44
:1051D0003148FEF798FF207CD8B994F903000028E5
:1051E000D8BFE770E078401EE070C820FDF7D4F823
:1051F000042200212948FFF77FFB94F90300009067
:1052000094F9023094F90120AFF294212348FFF77A
:105210000CFB2348FEF784FF2078032839D00821AF
:105220002846FDF7BFF9804601461E48FEF76BFF92
:10523000B8F1000F9CD184F808A04FF4AF7000E0E3
:1052400001E0FDF7A9F86078E074A0786075E07877
:10525000E0751248FFF728F8002211460F48FFF7C3
:105260004BFB16A10D48FFF7E0FA002201210B4885
:10527000FFF742FB15A10948FFF7D7FA0848FEF7E8
:105280004FFF20780328F9D1BDE8F84F6420FDF7DF
:1052900083B86420D3E70000780100205401002087
:1052A00060010020A8010020204D696E0000000070
:1052B0009001002020536563000000002020446F0F
:1052C0006E655F53657455702100000042544E3185
:1052D0005F546F5F436F6E74696E75650000000008
:1052E00010B500290AD00878002807D0054878446E
:1052F000FCF70AF8002801D0002010BD02487844CD
:1053000010BD0000860100007E01000010B50029DC
:105310000AD00878002807D005487844FBF7F4FF46
:10532000002801D0002010BD0248784410BD0000C4
:10533000760100006E010000FBF7F7BBFBF72CBD08
:105340000000000000000000010203040607080935
:105350000000000001020304000000000000000043
:10536000303132333435363738394142434445469B
:105370004030580030313233343536373839616295
:105380006364656640307800040000080000000097
:105390000000000200010000103031323334353695
:1053A0003738396162636465667870003031323352
:1053B0003435363738394142434445465850000069
:1053C00002400000000000A00000000005400000B6
:1053D000000000C8000000000C4000000000409CDD
:1053E00000000000194000000020BCBE00000000CA
:1053F00034400000BFC91B8E00000004B54000000F
:10540000504BCFD06607E2CF010000006C41000096
:105410003E8251AADFEEA73401000000D94200000D
:10542000DCB5A0E23A301F97FFFFFFFFB445000054
:10543000FD25A0C8E9A3C14FFFFFFFFFFF3F00000C
:105440000000008000000000FF3F0000000000801E
:1054500000000000A0550008000000202C00000003
:1054600028010008CC5500082C000020F40700009B
:10547000440100081C00000043000000F8FFFFFF8B
:105480000C0000000E0000000F0000002E000000C5
:105490001001000043000000F8FFFFFF0040404003
:1054A00040404040404041414141414040404040F7
:1054B00040404040404040404040404040050202A3
:1054C0000202020202020202020202020220202062
:1054D00020202020202020020202020202029090BE
:1054E00090909090101010101010101010101010BC
:1054F0001010101010101010020202020202888810
:10550000888888880808080808080808080808081B
:105510000808080808080808020202024000000003
:10552000000000000000000000000000000000007B
:10553000000000000000000000000000000000006B
:10554000000000000000000000000000000000005B
:10555000000000000000000000000000000000004B
:10556000000000000000000000000000000000003B
:10557000000000000000000000000000000000002B
:10558000000000000000000000000000000000001B
:10559000000000000000000000000000000000000B
:1055A00000000000000000000000000000000000FB
:1055B00000000000000000000000000001000000EA
:0C55C00010000000000000000024F400B7
:04000005080000ED02
:00000001FF
